:020000040800F2
:10000000504F0020450100086D2A00086F2A0008A3
:10001000732A0008772A00087B2A000800000000E5
:100020000000000000000000000000007F2A00081F
:10003000812A000800000000832A0008852A0008A1
:100040005F0100085F0100085F0100083B680008CD
:100050005F0100085F0100085F0100085F01000800
:100060005F0100085F0100085F0100085F010008F0
:100070005F0100085F0100085F0100085F010008E0
:100080005F0100085F0100085F0100085F010008D0
:100090005F0100085F0100085F0100085F010008C0
:1000A0005F0100085F0100085F0100085F010008B0
:1000B0005F0100088B5E00085F0100085F01000817
:1000C0005F0100085F0100085F0100085F01000890
:1000D0005F0100085F0100085F0100088D2A000829
:1000E0005F010008216800085F0100085F01000847
:1000F0005F0100085F0100085F0100085F01000860
:100100005F0100085F0100085F0100085F0100084F
:100110005F0100085F0100085F0100085F0100083F
:100120005F0100085F0100085F0100085F0100082F
:10013000DFF80CD008F0EAFF00480047552A000815
:10014000504F00200648804706480047FEE7FEE77C
:10015000FEE7FEE7FEE7FEE7FEE7FEE7FEE7FEE777
:1001600047020008310100080CB500200190009002
:100170006C48006840F480306A49086000BF6948F4
:10018000006800F4003000900198401C0190009835
:1001900018B90198B0F5A06FF1D16248006800F479
:1001A000003010B10120009001E000200090009884
:1001B000012843D15C48006840F010005A490860AB
:1001C0000846006820F0030008600846006840F018
:1001D0000200086053484068524948600846406839
:1001E00048600846406840F48060486008464068BF
:1001F00020F47C1048600846406840F4E8104860ED
:100200000846006840F08070086000BF45480068FC
:1002100000F000700028F9D04248406820F0030048
:10022000404948600846406840F00200486000BF0E
:100230003C48406800F00C000828F9D10CBD10B50E
:10024000FFF792FF10BD10B53648006840F001007E
:1002500034490860084640683449084031494860DC
:1002600008460068324908402E4908600846006880
:1002700020F4802008600846406820F4FE004860B2
:100280004FF41F008860FFF7DAFF4FF00060294944
:10029000086010BD10B5002100200022214B5B68D2
:1002A00003F00C0121B1042906D0082928D107E068
:1002B000214B224C236027E01F4B204C236023E07E
:1002C000184B5B6803F47010164B5B6803F48032C4
:1002D000022303EB904022B9194B4343174C236090
:1002E0000DE0104B5B6803F4003323B1144B434320
:1002F000124C236003E0104B4343104C236003E097
:100300000D4B0E4C236000BF00BF064B5B68C3F370
:1003100003130C4CE15C094B1B68CB40074C23607A
:1003200010BD000000100240002002400000FFF855
:10033000FFFFF6FE08ED00E000127A00000000204A
:1003400000093D000400002031490143314A116099
:10035000704770B5002100230F22C47804B32D4CE0
:10036000246804F4E064C4F5E064210AC1F10403E4
:10037000CA40447804FA03F1847814402143090107
:10038000254C0678A155047804F01F050124AC40E3
:1003900005786D11AD0005F1E025C5F8004109E0D3
:1003A000047804F01F050124AC401C4D067876113A
:1003B00045F8264070BD1A4A0A400243154B1B1FE0
:1003C0001A60704739B1134A121D12680243114B6B
:1003D0001B1D1A6006E00F4A121D126882430D4B66
:1003E0001B1D1A607047042808D14FF0E0210969ED
:1003F00041F004014FF0E022116107E04FF0E021ED
:10040000096921F004014FF0E022116170470000FA
:100410000000FA050CED00E000E400E080E100E0FF
:1004200080FFFF1F10B5012000F0A8FF002000F0A2
:10043000A5FF10BD2A49086070472949091F0860B7
:100440007047274984310860704701460020254ADB
:1004500010884FF67F4210400843224A10807047B0
:10046000014600201F4A10884FF680721040084352
:100470001C4A1080704708B500220092194A2C3A95
:100480000092009A02440092009A116008BD08B5DB
:1004900001460020009013482C3800900098084432
:1004A00000900098008808BD0D489C300068C0B2DC
:1004B00070470C480830008840F0010009490831B5
:1004C000088070470648A0300068C0B270470548F1
:1004D0000830008840F00200024908310880704767
:1004E00004860D422C6C0040002044490860091D20
:1004F0000860091D0860091D086041483F49143122
:100500000860704700213D498279002A3AD00A46A6
:10051000126803689A430B461A600A1D1268036842
:100520009A430B1D1A60027911440A6803681A4342
:100530000A60324A0832126803689A432F4B083324
:100540001A601A1D126803689A432C4B0C331A6008
:100550004279102A0ED11A1F126803681A43274BDA
:1005600008331A601A1D126803681A43234B0C33B0
:100570001A600DE02149427911440A6803681A4360
:100580000A6005E0027911440A6803689A430A6028
:1005900070470021016001710C21417100218171BE
:1005A00070471649103109680143144A103211602E
:1005B000704701460020114A143212680A400AB1FD
:1005C000012000E0002070470C491431086070479A
:1005D000014600200022094B1B6803EA0102074B79
:1005E00014331B680B4013B10AB1012000E0002056
:1005F0007047024914310860704700000004014050
:10060000FFFF0F0030B943F2DB028100A1F1C041CE
:100610000A6005E043F2D2028100A1F1C0410A6004
:100620006FF07042411C8900A1F1C0410A60810055
:10063000A1F1C041C1F80421704710280AD1182146
:100640004FF020421166402151664FF0FC31916617
:10065000D16610E01821F74A116040214FF0204286
:10066000C2F884104FF0FC31F24A083211604FF0AA
:100670002042C2F88C1070471820EE4920310860E3
:1006800000200906C1F8A4004FF0FC30E9492831E8
:100690000860091D0860091D08607047D0E9011253
:1006A0001143C268114302691143426911438269CF
:1006B0001143C2691143026A1143426A1143826ABB
:1006C0001143C26A1143026B114302689200A2F106
:1006D000C0421160816808290BD101688900A1F12D
:1006E000C041096841F0400201688900A1F1C041A0
:1006F0000A60416B0968426B526841EA0211426B21
:10070000926841EA0221426B928941EA0241426BBE
:10071000128A41EA0251426B127D41EA0261426B48
:10072000926911430268521C9200A2F1C04211600A
:10073000C16AB1F5804F1BD1816B0968826B526829
:1007400041EA0211826B926841EA0221826B128AAD
:1007500041EA0251826B127D41EA0261826B926929
:10076000114302689200A2F1C042C2F8041107E0EE
:100770006FF0704201688900A1F1C041C1F8042105
:10078000704730B5002100220023446844F008047B
:1007900085682C43C5682C4305692C43456944EAA8
:1007A0004524856944EA4531C4692468C5696D6892
:1007B00044EA0524C5692D8944EA0544C5692D7BB1
:1007C00044EA0562046A2468056A6D6844EA0524FF
:1007D000056A2D8944EA0544056A2D7B44EA0563D0
:1007E0000468102C05D14FF020442166A266E36610
:1007F00008E0904C21604FF02044C4F888208D4CD4
:100800000C34236030BD016841F01001426841EAB8
:100810004221826841EA4231864A20321160C16831
:100820000968C268526841EA0221C268128941EA35
:100830000241C268127B41EA02617E4A283211609D
:10084000016909680269526841EA02210269128954
:1008500041EA02410269127B41EA0261754A2C3287
:100860001160416909684269526841EA022142699E
:10087000128941EA02414269127B41EA02614FF06A
:100880002042C2F8B010704700210160022141608F
:1008900000218160C160016141618161C1610162CA
:1008A0004FF480514162490081620021C1620163BD
:1008B0000F21426B1160426B5160FF21426B9160CE
:1008C0000F21426BD160426B1161426B516100217B
:1008D000426B91610F21826B1160826B5160FF212D
:1008E000826B91600F21826BD160826B1161826B90
:1008F00051610021826B91617047102101600021DC
:1009000041608160C160016141618161FC21C26916
:100910001160C2695160C2699160C269D160026AA6
:100920001160026A5160026A9160026AD160704788
:100930000021016041608160FC21C2681160C268D1
:100940005160C2689160C268D16002691160026939
:100950005160026991600269D16042691160426927
:100960005160426991604269D160704751B1820023
:10097000A2F1C042126842F001038200A2F1C0421B
:10098000136009E08200A2F1C04212682A4B1A40AB
:100990008300A3F1C0431A60704799B1102808D1B1
:1009A0004FF02042126E42F004024FF020431A66CC
:1009B0001DE0204A126842F004024FF02043C3F8C1
:1009C000802014E0102809D14FF02042126E1A4BFB
:1009D000DB1E1A404FF020431A6608E0154A1268E1
:1009E000154BDB1E1A404FF02043C3F880207047A0
:1009F00048B110492031096841F004014FF020420C
:100A0000C2F8A01009E00B49203109680A4AD21E39
:100A100011404FF02042C2F8A0107047B9B1102821
:100A20000CD14FF02042126E42F040024FF02043B2
:100A30001A661FE0800000A0FEFF0F00724A1268D5
:100A400042F040024FF02043C3F8802012E010280B
:100A500008D14FF02042126E6C4B1A404FF02043E9
:100A60001A6607E0684A1268684B1A404FF0204344
:100A7000C3F88020704701460020102903D14FF0B1
:100A80002042506F02E0604A14321068704710B57F
:100A9000F2B1102807D14FF020435B6E0B434FF0AB
:100AA0002044636632E0B0F5807F08D1564B1B1DB1
:100AB0001B680B434FF02044C4F8843026E0524BAF
:100AC00024331B680B434FF02044C4F8A4301DE0CE
:100AD000102807D14FF020435B6E8B434FF020442A
:100AE000636613E0B0F5807F08D1474B1B1D1B6880
:100AF0008B434FF02044C4F8843007E0424B24334A
:100B00001B688B434FF02044C4F8A43010BD10B5CF
:100B1000024600200023102A03D14FF02044636EC8
:100B200009E0B2F5807F03D1374C241D236802E031
:100B3000354C2434236803EA01040CB1012000E0A1
:100B4000002010BD102807D14FF02042526E8A437A
:100B50004FF020435A6613E0B0F5807F08D12A4A4F
:100B6000121D12688A434FF02043C3F8842007E027
:100B7000254A243212688A434FF02043C3F8A42048
:100B8000704770B502460020002300240025102A7B
:100B900003D14FF02046736E09E0B2F5807F03D198
:100BA000194E361D336802E0174E2436336803EAC7
:100BB000010403EAD10514B10DB1012000E00020C9
:100BC00070BD102808D14FF02042526E22EAD102A7
:100BD0004FF020435A6615E0B0F5807F09D10A4AEC
:100BE000121D126822EAD1024FF02043C3F884207C
:100BF00008E0054A2432126822EAD1024FF020436D
:100C0000C3F8A42070470000800000A0BFFF0F00C1
:100C100010B50446CC48844208D10121042000F0DC
:100C200093FB0021042000F08FFB46E0C74884427C
:100C300008D10121082000F087FB0021082000F0E6
:100C400083FB3AE0C248844208D10121102000F021
:100C50007BFB0021102000F077FB2EE0BD48844292
:100C600008D10121202000F06FFB0021202000F09E
:100C70006BFB22E0B848844208D10121402000F0FB
:100C800063FB0021402000F05FFB16E0B348844284
:100C900008D10121802000F057FB0021802000F0C6
:100CA00053FB0AE0AE48844207D10121801500F0D1
:100CB0004BFB0021A01500F047FB10BD10B5012132
:100CC000084600F041FB0021012000F03DFB10BD73
:100CD0002DE9F041024600250026002000230024D3
:100CE000002791F803C00CF00F0591F803C00CF039
:100CF000100CBCF1000F03D091F802C04CEA0505BE
:100D000091F800C0BCF1000F31D0146800202BE036
:100D10004FF0010C0CFA00F3B1F800C00CEA030626
:100D20009E4220D183004FF00F0C0CFA03F7BC4316
:100D300005FA03FC4CEA040491F803C0BCF1280F47
:100D400006D14FF0010C0CFA00FCC2F814C00AE006
:100D500091F803C0BCF1480F05D14FF0010C0CFA1B
:100D600000FCC2F810C0401C0828D1D31460B1F8B0
:100D700000C0BCF1FF0F34DD546800202EE000F10C
:100D8000080C4FF0010808FA0CF3B1F800C00CEAA7
:100D900003069E4221D183004FF00F0C0CFA03F79B
:100DA000BC4305FA03FC4CEA040491F803C0BCF10F
:100DB000280F05D100F1080C08FA0CF8C2F81480CD
:100DC00091F803C0BCF1480F07D100F1080C4FF0B7
:100DD000010808FA0CF8C2F81080401C0828CED38D
:100DE0005460BDE8F0814FF6FF71018002218170EF
:100DF0000421C17070470246002093680B400BB17C
:100E0000012000E0002070470146886880B27047EA
:100E100002460020D3680B400BB1012000E0002007
:100E200070470146C86880B27047016170474161F0
:100E300070470AB1016100E041617047C1607047CD
:100E40004FF480320A4382618161826182698269E2
:100E5000704702460020434B18684FF680731840D5
:100E600040EA021008433F4B186070473E49C86192
:100E70007047F0B50A46002300240021002500F049
:100E80000046B6F1004F02D1364EF16901E0354E11
:100E90007168C0F3034583B200F44016B6F5401FF5
:100EA00008D121F070612F4E766826F070662D4FC4
:100EB0007E6012E000F48016B6F5801F06D103268E
:100EC00006FA05F4A14341F0706106E0460D3601D3
:100ED00003FA06F6B14341F0706122B1460D3601C6
:100EE00003FA06F6314300F00046B6F1004F02D196
:100EF0001C4EF16101E01B4E7160F0BD30B5002267
:100F00008B071C0F0F2303FA04F2164B08338C10C7
:100F100053F824309343134C08348D1044F8253093
:100F200023468C1053F824308C07240F00FA04F465
:100F300023430C4C08348D1044F8253030BD0A4949
:100F4000DC3108607047000000080140000C0140DF
:100F5000001001400014014000180140001C014035
:100F600000200140000001400000204210B5012196
:100F7000080700F0F6F900214FF0805000F0F1F979
:100F800010BD2A4908627047284908617047014628
:100F90000020274A106820F0E000084310607047E6
:100FA0002249A0310860704710B502460020204B4E
:100FB000186820F00300104318601E4B1B6843F0B4
:100FC00004031C4C2360012901D130BF00E020BF85
:100FD000184B1B6823F00403164C236010BD144803
:100FE000006840F00400124908600846006840F0BC
:100FF000020008600F48006840F004000D490860D6
:1010000000BF00BF30BF704701460020084A526849
:101010000A400AB1012000E0002070470449096835
:1010200041EA8001024A11607047000000000E4250
:101030000070004010ED00E0DF48006840F0010063
:10104000DD49086008464068DC490840DA494860E4
:1010500008460068DA490840D74908600846006831
:1010600020F4802008600846406820F4FE004860B4
:101070004FF41F0088607047CF49096821F4803120
:10108000CD4A11601146096821F480211160B0F544
:10109000803F03D0B0F5802F0ED106E0C649096825
:1010A00041F48031C44A116007E0C349096841F442
:1010B000A021C14A116000E000BF00BF704710B519
:1010C00001460022002300204A11012A02D1BA4C15
:1010D000236806E0022A02D1B74C236A01E0B64C2D
:1010E000636A01F01F02012494401C400CB10120EE
:1010F00000E0002010BD38B500200090002400253D
:1011000000BF3120FFF7DBFF05460098401C009030
:101110000098B0F5A06F01D0002DF2D03120FFF77C
:10112000CEFF08B1012400E00024204638BD01466E
:101130000020A14A106820F0F80040EAC1001060C9
:101140007047A04908607047024600209A4B5868D3
:1011500020F47C1042EA01031843974B5860704713
:1011600098490866704701460020934A506820F06D
:1011700003000843506070478F48406800F00C003F
:101180007047014600208C4A506820F0F000084368
:101190005060704701460020874A506820F4E060A4
:1011A00008435060704701460020834A506820F48D
:1011B000605040EAC1005060704729B17E4A527ABF
:1011C00002437D4B5A7204E07B4A527A82437A4B47
:1011D0005A7270477B49D831086070470146002039
:1011E000754A506820F44040084350607047002121
:1011F000714A20321170704A82F82010012802D002
:1012000004280AD104E001216B4A2032117005E064
:101210000521694A2032117000E000BF00BF70470D
:101220006949086070476449096A0143624A11626A
:101230007047654944390860704730B50021002285
:10124000002400235C4D6D6805F00C0121B10429D8
:1012500005D0082923D105E05C4D056022E05B4DF7
:1012600005601FE0544D6D6805F47012524D6D68B5
:1012700005F48034022505EB92421CB9544D5543C8
:1012800005600BE04C4D6D6805F400351DB1504D07
:101290005543056002E04D4D5543056002E04B4D5E
:1012A000056000BF00BF444D6D6805F0F0010909FD
:1012B000484D6B5C0568DD4045603F4D6D6805F449
:1012C000E061090A434D6B5C4568DD4085603A4D3D
:1012D0006D6805F46051C90A3E4D6B5C4568DD40A0
:1012E000C560354D6D6805F44041890B3A4D6B5C26
:1012F000C568B5FBF3F5056130BD29B12E4A5269C9
:1013000002432D4B5A6104E02B4A526982432A4B17
:101310005A61704729B1284A92690243264B9A6163
:1013200004E0254A92698243234B9A61704729B1B0
:10133000214AD2690243204BDA6104E01E4AD26995
:1013400082431D4BDA61704729B11B4AD2680243C0
:10135000194BDA6004E0184AD2688243164BDA600F
:10136000704729B1144A12690243134B1A6104E011
:10137000114A12698243104B1A6170471249403971
:10138000086070470F49C86470470B49C8717047BF
:101390000948406A40F0807007494862704701463A
:1013A0000020054A92680A400AB1012000E00020AE
:1013B0007047014988727047001002400000FFF832
:1013C000FFFFF6FE000042428004424200127A0013
:1013D00000093D00140000202400002029B1504ADB
:1013E000128802434E4B1A8004E04D4A1288824311
:1013F0004B4B1A8070474A48001D008840F010008F
:101400004749091D088070474548001D00884FF670
:10141000EF7108404249091D08807047002140488B
:101420001C300188001F008841EA0040704700B569
:101430000246FFF7E0FF100C394918310880091DFA
:101440000A80FFF7E1FF00BD00B50246FFF7D3FFBA
:10145000C2F30340324908310880091D0A80FFF7B2
:10146000D3FF00BD00B50246FFF7C5FF100C2C49A5
:1014700020310880091D0A80FFF7C6FF00BD00204B
:101480002749103109880907080B254914310988B3
:101490000843704700BF2248001D008800F020006C
:1014A0000028F8D070471E48001D00884FF6F771DD
:1014B00008401B49091D088000BF1948001D00880D
:1014C00000F008000028F8D0704701460020144AB8
:1014D000121D12880A400AB1012000E00020704766
:1014E0000F49091D098881430D4A121D118070475B
:1014F000014600200A4A121D12880A40D0B2084A4A
:1015000012880A4012B108B1012000E000207047A3
:101510000349091D09888143014A121D1180704742
:101520000028004010B50446BE48844208D101217D
:101530008014FFF709FF0021A014FFF705FF16E054
:10154000B948844208D101210014FFF70AFF0021A5
:101550002014FFF706FF0AE0B448844207D10121B6
:10156000C013FFF7FEFE0021E013FFF7FAFE10BDE7
:1015700010B50022028802F441520B884C882343A4
:101580008C882343CC8823430C8923434C892343F1
:101590008C892343CC8923431A430280838B4FF2E7
:1015A000FF74234083830B8A038210BD2DE9F04F23
:1015B00085B005460C464FF0000902274FF00008A1
:1015C0004FF0010B0026B246A88B4FF240010840B5
:1015D000A88302202884B5F81C90A068022801D1B5
:1015E00000BF38E0A08810B94FF0010B01E04FF0C8
:1015F000020B8D48854200D100E000BF6846FFF72E
:101600001CFEDDF800A0E088B0F5007F0AD14FEAAB
:101610001A2000EB80004000A168B0FBF1F0401DF3
:1016200086B20BE04FEA4B10BAFBF0F000EB800003
:101630004000A168B0FBF1F0401D86B20A20B6FB65
:10164000F0F606F00108A6EB0800C0F34F074FF6CE
:10165000FF7000EA0828022F01DBFF2F02DD0227BE
:101660004FF00008E08840EA080038432884A0884A
:10167000A1890843618808432188084340F4006039
:1016800040EA0909A5F81C9005B0BDE8F08F0021DB
:10169000018041808180C180018141818181C1813E
:1016A0000721018270470021018041808180C18033
:1016B0000221816000218181704721B1028842F0BE
:1016C0004002028004E002884FF6BF731A40028095
:1016D000704721B1828B42F48062828304E0828B66
:1016E0004FF6FF331A408283704730B50024002341
:1016F0000C110125A540ABB21AB185881D43858028
:1017000002E085889D43858030BD1AB183880B43F4
:10171000838002E083888B43838070478181704798
:101720000146888970474FF6FF62914204D00288D3
:1017300042F48072028004E002884FF6FF631A4090
:101740000280704721B1828842F00402828004E066
:1017500082884FF6FB731A408280704702884FF2EE
:10176000FF731A40028002880A4302807047018892
:1017700041F480510180704721B1028842F4005247
:10178000028004E002884DF6FF731A400280704721
:1017900002460020012901D0108B00E0908A70479A
:1017A0000146088A7047B1F5804F04D1028842F49F
:1017B0008042028004E002884BF6FF731A400280E8
:1017C00070470246002013890B400BB1012000E056
:1017D00000207047CA4302817047F0B502460020DE
:1017E00000240023002501F00F070126BE40B4B2FB
:1017F0000B1101269E40B3B2968806EA03051689AE
:10180000264016B10DB1012000E00020F0BD10B55A
:10181000002201F00F040123A3409AB2D3430381B5
:1018200010BD00000030014000380040003C004086
:1018300010B50446FE48844208D10121C014FFF7C8
:1018400083FD0021E014FFF77FFDC4E0B4F1804F79
:1018500008D101210846FFF784FD00210120FFF790
:1018600080FDB8E0F348844208D101210220FFF74F
:1018700078FD00210220FFF774FDACE0EE488442C1
:1018800008D101210420FFF76CFD00210420FFF79F
:1018900068FDA0E0E948844208D101210820FFF753
:1018A00060FD00210820FFF75CFD94E0E4488442DD
:1018B00008D101211020FFF754FD00211020FFF76F
:1018C00050FD88E0DF48844208D101212020FFF745
:1018D00048FD00212020FFF744FD7CE0DA488442E7
:1018E00008D101214014FFF72FFD00216014FFF7FC
:1018F0002BFD70E0D548844209D10121C804FFF7CF
:1019000023FD00214FF40020FFF71EFD63E0D048C7
:10191000844209D101210805FFF716FD00214FF48B
:101920008010FFF711FD56E0CA48844209D1012119
:101930004805FFF709FD00214FF40010FFF704FDF3
:1019400049E0C548844208D101214020FFF709FD44
:1019500000214020FFF705FD3DE0C048844208D14A
:1019600001218020FFF7FDFC00218020FFF7F9FC1A
:1019700031E0BB48844208D101218015FFF7F1FC1A
:101980000021A015FFF7EDFC25E0B648844209D1FF
:1019900001210804FFF7D8FC00214FF48030FFF745
:1019A000D3FC18E0B048844209D101214804FFF774
:1019B000CBFC00214FF40030FFF7C6FC0BE0AB4836
:1019C000844208D101218804FFF7BEFC00214FF4B6
:1019D0008020FFF7B9FC10BD00220288944B98428A
:1019E0000ED0994B98420BD0B0F1804F08D0914B5C
:1019F000984205D0904B984202D0904B984204D127
:101A00004FF68F731A404B881A438D4B984207D07C
:101A10008C4B984204D04FF6FF431A40CB881A43B0
:101A200002808B8883850B880385814B98420BD07D
:101A3000854B984208D08B4B984205D08A4B9842F0
:101A400002D08A4B984201D10B7A0386012383820C
:101A5000704770B5002400220023058C4FF6FE76F7
:101A600035400584028C8388048B4FF68F752C409B
:101A7000B51E2C400D882C43751E2A400D892A4323
:101A80004D882A436A4DA8420BD06F4DA84208D01A
:101A9000744DA84205D0744DA84202D0734DA8429F
:101AA00013D14FF6F7752A404D892A434FF6FB753F
:101AB0002A408D882A434FF6FF652B404FF6FF558D
:101AC0002B408D892B43CD892B4383800483CD8884
:101AD0008586028470BD70B5002400220023058C29
:101AE0004FF6EF7635400584028C8388048B48F6E8
:101AF000FF752C404FF6FF452C400D884FF6FF76C2
:101B000006EA05252C434FF6DF752A400D8906EAC3
:101B100005152A434D8806EA05152A43444DA84277
:101B200002D0494DA8421DD14FF67F752A404D89FC
:101B30004FF6FF7606EA05152A434FF6BF752A4091
:101B40008D8806EA05152A434FF6FF352B404FF2E4
:101B5000FF752B408D8906EA85052B43CD8906EA62
:101B600085052B4383800483CD880587028470BD5F
:101B700070B5002400220023058C4FF6FF66354027
:101B80000584028C8388848B4FF68F752C404FF62A
:101B9000FC752C400D882C434FF6FF552A400D89CB
:101BA0004FF6FF7606EA05252A434D8806EA052505
:101BB0002A431F4DA84202D0234DA8421DD14FF207
:101BC000FF752A404D894FF6FF7606EA05252A4320
:101BD0004FF6FF352A408D8806EA05252A434EF642
:101BE000FF752B404DF6FF752B408D8906EA0515D4
:101BF0002B43CD8906EA05152B4383808483CD884A
:101C00008587028470BD70B5002200230024058CF6
:101C10004EF6FF7635400584038C8488828B48F627
:101C2000FF752A404FF6FF452A400D8820E000004E
:101C3000002C01400004004000080040000C00405F
:101C4000001000400014004000340140004C0140EE
:101C5000005001400054014000180040001C0040AA
:101C60000020004000400140004401400048014085
:101C70004FF6FF7606EA05252A434DF6FF752B4001
:101C80000D8906EA05352B434D8806EA05352B43B9
:101C9000FA4DA84202D0FA4DA84208D14BF6FF7582
:101CA0002C408D894FF6FF7606EA85152C438480FB
:101CB0008283CD88A0F84050038470BD828B4FF2A0
:101CC000FF331A408283828B4FF6FF7303EA0123AE
:101CD0001A4382837047F0B50C4615460022002156
:101CE0000026078C4EF6FF7C07EA0C070784828BE0
:101CF000018C4FF6FF7707EA043640F6FF473A407B
:101D00004FF6FF7707EA05273A434FF6FF7707EAD2
:101D100003373A43D94FB8420ED0D94FB8420BD00F
:101D2000B0F1804F08D0D74FB84205D0D64FB84257
:101D300002D0D64FB84206D14DF6FF77394046F46F
:101D40008057394305E047F6FF57394044F4805740
:101D5000394382830184F0BD828B4FF6F3731A40BE
:101D60008283828B0A4382837047F0B50C46154606
:101D7000002200210026078C4FF6FF6C07EA0C07B3
:101D80000784828B018C4FF6FF7707EA04264FF613
:101D90000C773A404FF6FF7707EA03172F433A4391
:101DA000B64FB8420ED0B64FB8420BD0B0F1804F0C
:101DB00008D0B44FB84205D0B34FB84202D0B34FA9
:101DC000B84206D14FF6FF57394046F48077394381
:101DD00005E04FF2FF57394044F48077394382835E
:101DE0000184F0BD028B4FF2FF331A400283028B55
:101DF0004FF6FF7303EA01231A4302837047F0B5DD
:101E00000C461546002200210026078C4FF6EF7C79
:101E100007EA0C070784028B018C4FF6FF7707EA6D
:101E2000041640F6FF473A404FF6FF7707EA0337BC
:101E30003A434FF6FF7707EA05273A438F4FB842F8
:101E40000ED08F4FB8420BD0B0F1804F08D08D4FDD
:101E5000B84205D08C4FB84202D08C4FB84206D160
:101E60004FF6DF77394046F01007394305E04FF66B
:101E70005F77394044F01007394302830184F0BD95
:101E8000028B4FF6F3731A400283028B0A430283DC
:101E90007047F0B50C46154600220021068C4FF61F
:101EA000FE773E400684028B018C4FF60C76324062
:101EB0007E1C06EA03162E433243704EB0420ED00B
:101EC0006F4EB0420BD0B0F1804F08D06D4EB04293
:101ED00005D06D4EB04202D06C4EB04206D14FF6E6
:101EE000FD76314044F00106314305E04FF6F576CA
:101EF000314044F00106314302830184F0BD70B5E6
:101F000005460C465D4885420ED05D4885420BD0A3
:101F1000B5F1804F08D05B48854205D05A488542CC
:101F200002D05A48854200D100E000BF208850B955
:101F30002389A28861882846FFF7ABFFE1882846FD
:101F4000FFF79EFF25E0208804280AD12389A28874
:101F500061882846FFF753FFE1882846FFF742FFD4
:101F600017E0208808280AD12389A288618828469A
:101F7000FFF7FBFEE1882846FFF7EEFE09E0238924
:101F8000A28861882846FFF7A6FEE1882846FFF769
:101F900095FE70BD2DE9F04105460C46002601274F
:101FA000608808B9022600E00026A088012801D137
:101FB000022700E001272088A0B92389A288618830
:101FC0002846FFF766FFE1882846FFF759FF238977
:101FD0003A4631462846FFF712FFE1882846FFF7C8
:101FE00001FF13E02389A28861882846FFF707FFD5
:101FF000E1882846FFF7F6FE23893A46314628460F
:10200000FFF747FFE1882846FFF73AFFBDE8F08178
:102010000A884B881A438B881A43CB881A430B894A
:102020001A434B891A438B891A43A0F844207047FE
:102030004FF6FF71818000210180C18041800172D3
:1020400070470021018041808180C18001814181F0
:102050008181C181704700210180418001218180FF
:102060000021C18001817047002101804180818071
:10207000C18001814181818170470000002C0140B5
:10208000003401400004004000080040000C004003
:1020900021B1028842F00102028004E002884FF67A
:1020A000FE731A400280704731B1B0F8442042F408
:1020B0000042A0F8442005E0B0F84420C2F30E022C
:1020C000A0F8442070471AB183890B43838102E052
:1020D00083898B43838170478182704741EA020381
:1020E000A0F8483070471AB183890B43838102E01E
:1020F00083898B438381704701894FF6F8721140C1
:10210000018170470A46002101894FF68F731940FB
:1021100011430181704730B504460D4629462046DB
:10212000FFF7F0FF208940F00700208130BD2DE946
:10213000F04104460D4616461F46602D06D13B462B
:10214000012231462046FFF75AFE05E03B460122B8
:1021500031462046FFF79DFE29462046FFF7D2FF75
:10216000208940F007002081BDE8F08130B50C46A1
:1021700000210189C9B24FF6FF7505EA0325154311
:1021800025432943018130BD2DE9F04105460E4626
:1021900017469846002443463A4631462846FFF7FC
:1021A000E5FF2C894FF6F870044044F007044FF621
:1021B0008F70044044F070042C81BDE8F081F0B5CC
:1021C00004460D4616461F463B46324629462046E3
:1021D000FFF7CCFF208940F480402081F0BD0185CD
:1021E000828270470A46002101884FF68F7319409A
:1021F000114301807047F0B50C4615461E4600217C
:10220000002200230189028B038C4FF6F8773940B6
:1022100021434FF6FC473A4040F201173A434FF64C
:10222000DD773B404FF6FF7707EA06172F433B4326
:10223000018102830384F0BD0A460021018B4FF621
:102240008F7319401143018370470A460021018BA7
:1022500048F6FF7319404FF6FF7303EA0223194350
:10226000018370470A460021818B4FF68F73194016
:102270001143818370470A460021818B48F6FF7322
:1022800019404FF6FF7303EA022319438183704715
:1022900021B1028842F08002028004E002884FF6F9
:1022A0007F731A400280704721B1828842F0040295
:1022B000828004E082884FF6FB731A408280704768
:1022C00021B1828842F00802828004E082884FF6C1
:1022D000F7731A408280704721B1828842F0010270
:1022E000828004E082884FF6FE731A408280704735
:1022F0000A460021018B4FF6F77319401143018301
:1023000070470A460021018B4FF2FF7319404FF6C8
:10231000FF7303EA02231943018370470A46002131
:10232000818B4FF6F77319401143818370470A463A
:102330000021818B4FF2FF7319404FF6FF7303EAC0
:1023400002231943818370470A460021018B4FF60F
:10235000FB7319401143018370470A460021018B2A
:102360004FF6FF3319404FF6FF7303EA0223194378
:10237000018370470A460021818B4FF6FB73194099
:102380001143818370470A460021818B4FF6FF334A
:1023900019404FF6FF7303EA022319438183704704
:1023A0000A460021018B4FF67F73194011430183C8
:1023B00070470A460021018BC1F30E014FF6FF73EF
:1023C00003EA02231943018370470A460021818BE7
:1023D0004FF67F7319401143818370470A460021ED
:1023E000818BC1F30E014FF6FF7303EA02231943F9
:1023F000818370470A460021018C4FF6FD73194016
:102400001143018470470A460021018C4FF6F7738F
:1024100019401143018470470A460021018C4FF690
:10242000DF7319404FF6FF7303EA02131943018467
:1024300070470A460021018C4FF67F7319404FF612
:10244000FF7303EA02131943018470470A4600210F
:10245000018C4FF6FF5319404FF6FF7303EA022336
:102460001943018470470A460021018C4FF2FF7323
:1024700019404FF6FF7303EA0223194301847047A2
:102480000A460021018C4DF6FF7319404FF6FF7389
:1024900003EA023319430184704730B50023012455
:1024A0008C40A3B2048C9C430484048C02FA01F592
:1024B000ADB22C43048430BD30B5002304248C40DD
:1024C000A3B2048C9C430484048C02FA01F5ADB2DF
:1024D0002C43048430BD70B5034600200024184608
:1024E000183001258D40ACB21D8CA5431D8409B167
:1024F000082909D100EB6100056825F07005056029
:102500000568154305600EE00D1FC5F34E05284410
:10251000056825F4E045056005684FF6FF7606EA94
:1025200002263543056070BD21B1028842F00202E7
:10253000028004E002884FF6FD731A400280704763
:1025400021B1028842F00402028004E002884FF6C2
:10255000FB731A400280704721B1828842F08002EA
:10256000828004E082884FF67F731A408280704731
:1025700002884FF6F7731A40028002880A430280ED
:10258000704782884FF68F731A40828082880A4390
:102590008280704702894FF6F8731A4002810289DF
:1025A0000A430281704702894FF67F731A40028105
:1025B00002890A4302817047818470478185704790
:1025C000818670470187704781877047A0F8401067
:1025D000704702884FF6FF431A40028002880A4380
:1025E000028070470146888E70470146088F704709
:1025F0000146888F70470146B1F840007047014698
:10260000888C70470146088D704702460020138A67
:102610000B400BB1012000E000207047CA4302824A
:10262000704730B50246002000230024158A05EAD1
:102630000103958905EA010413B10CB1012000E002
:10264000002030BDCA4302827047000010B5044626
:10265000FB48844209D101218803FEF775FE002161
:102660004FF48040FEF770FE32E0F648844209D114
:1026700001214804FEF775FE00214FF40030FEF7FB
:1026800070FE25E0F048844209D101218804FEF75C
:1026900068FE00214FF48020FEF763FE18E0EB484F
:1026A000844209D10121C804FEF75BFE00214FF4EA
:1026B0000020FEF756FE0BE0E548844208D10121D8
:1026C0000805FEF74EFE00214FF48010FEF749FE8C
:1026D00010BD2DE9F04786B005460E460024A246FF
:1026E00000BFA1460027B08900B100BF2F462C8A49
:1026F0004CF6FF700440F08804432C82AC894EF6FF
:10270000F3100440B08831890843718908430443B9
:10271000AC81AC8A4FF6FF400440B0890443AC82E0
:1027200001A8FEF78AFDC648874202D1DDF810A055
:1027300001E0DDF80CA0A88900F4004040B10AEBEC
:10274000CA0000EB0A1031684900B0FBF1F807E05D
:102750000AEBCA0000EB0A1031688900B0FBF1F8FF
:102760006420B8FBF0F004012009642101FB10890A
:10277000A88900F4004040B1322000EBC900B0FB52
:10278000F1F000F00700044308E0322000EB0910EC
:102790006421B0FBF1F000F00F0004432C8106B07F
:1027A000BDE8F0874FF41651016000218180C1809F
:1027B00001810C21418100218181704710B50246C1
:1027C0000020108A4FF2FF0318400B884C882343E7
:1027D0008C882343CC8823431843108210BD0021EA
:1027E000018041808180C180704721B1828942F49B
:1027F0000052828104E082894DF6FF731A40828183
:102800007047F0B50346002400260025002040F65E
:102810006A17B94200D100BF1846C1F3421401F053
:102820001F06012707FA06F5012C01D10C3004E040
:10283000022C01D1103000E014301AB107682F4388
:10284000076002E00768AF430760F0BD1AB1838AF2
:102850000B43838202E0838A8B4383827047028A20
:102860004FF6F0731A400282028A0A4302827047CE
:1028700082894FF2FF731A40828182890A438281E2
:10288000704721B1828942F00202828104E082898C
:102890004FF6FD731A4082817047028A4FF6DF734C
:1028A0001A400282028A0A430282704721B1028AD8
:1028B00042F48042028204E0028A4BF6FF731A401F
:1028C00002827047C1F308028280704701468888FF
:1028D000C0F308007047818941F001018181704790
:1028E000028BD2B20283028B42EA0122028370473A
:1028F000028B02F47F420283028B0A4302837047F9
:1029000021B1828A42F02002828204E0828A4FF65C
:10291000DF731A408282704721B1828A42F010022E
:10292000828204E0828A4FF6EF731A4082827047F7
:1029300021B1828A42F00802828204E0828A4FF644
:10294000F7731A408282704721B1828942F40042B3
:10295000828103E08289C2F30E028281704721B135
:10296000828A42F40062828204E0828A4FF2FF731C
:102970001A4082827047828A4FF6FB731A40828225
:10298000828A0A438282704721B1828A42F002021F
:10299000828204E0828A4FF6FD731A408282704779
:1029A00002460020B1F5007F00D100BF13880B4024
:1029B0000BB1012000E00020704701F40072B2F575
:1029C000007F00D100BFCA430280704770B5024645
:1029D000002400230025002040F66A16B14200D1F1
:1029E00000BFC1F3421501F01F03012606FA03F3ED
:1029F000012D02D19689334006E0022D02D1168ABC
:102A0000334001E0968A33400C12012606FA04F4A2
:102A10001688344013B10CB1012000E0002070BDD5
:102A200010B50022002340F66A14A14200D100BF75
:102A30000A1201249440A3B2DC43048010BD0000BC
:102A4000003801400044004000480040004C004075
:102A50000050004000F0F4F800F098F801F06AFD32
:102A600003F045F903F000F800BFFEE7704700BF30
:102A7000FEE700BFFEE700BFFEE700BFFEE77047CE
:102A80007047704710B500F0C8F810BD10B540F29F
:102A900025512048FFF79AFFD8B11E48FFF716FFCF
:102AA000C4B21D48B0F80004C0F30E0040F2FF317C
:102AB00088420EDA1849B1F80014C1F30E00411C27
:102AC000154AB2F8002461F30E021349A1F800245C
:102AD0000C5440F224410F48FFF778FF012817D12A
:102AE0000D48B0F8000420F4004000F500400A4909
:102AF000A1F800040748FFF7E9FEC4B207A10648A1
:102B000005F034FD08B1012000E0002006490870FE
:102B100010BD000000480040B8440020434C4F5313
:102B200045440D0A000000005C00002008B50121AA
:102B30000820FEF7EFFB2020ADF8000010208DF8F4
:102B4000030003208DF8020069460F48FEF7C0F825
:102B50000120ADF8000069460B48FEF7B9F80220E5
:102B6000ADF8000069460848FEF7B2F82021064893
:102B7000FEF75BF901210448FEF757F902210248EC
:102B8000FEF753F908BD0000000C014030B527489E
:102B90000068274AB0FBF2F1B1F1807F01D3012038
:102BA0001DE021F07F40401E4FF0E02250615017A1
:102BB0000F22002807DA13071D0E1E4B00F00F042A
:102BC000241F1D5503E013071C0E1B4B1C5400BF94
:102BD00000204FF0E022906107201061002008B132
:102BE00000BFFEE74FF0E020006920F001004FF049
:102BF000E021086130BD01B51049009808604FF030
:102C0000E020006940F001004FF0E021086100BFC2
:102C10000A4800680028FBD108BD0848006820B1B8
:102C200006480068401E0549086070470000002003
:102C300040420F0018ED00E000E400E02800002012
:102C400000B585B001210420FEF764FB0121880353
:102C5000FEF760FB4FF40070ADF8100018208DF8FF
:102C6000130003208DF8120004A92248FEF730F863
:102C70004FF48060ADF8100004208DF8130004A913
:102C80001C48FEF725F84FF4E13000900020ADF825
:102C90000400ADF80600ADF80800ADF80C000C20FB
:102CA000ADF80A0069461448FFF713FD01211248E8
:102CB000FFF79BFD05B000BD70B504460D46E1B2BF
:102CC0000D48FFF7FFFD00BF80210B48FFF768FEAE
:102CD0000028F9D0204670BD10B5044600BF202161
:102CE0000548FFF75DFE0028F9D00348FFF7EEFD29
:102CF00010BD000000080140003801402DE9F041FE
:102D000080460C461048007820B900F021F80120D8
:102D10000D4908702512E6B2A5F1A101C1EB01121F
:102D200002EB411106EB4101A1390802C11700EB8A
:102D30005171CF10054839182022404600F0B6F9ED
:102D40000020BDE8F08100004400002000301800A1
:102D500000B587B001210803FEF7DCFA0121D42079
:102D6000FEF7D8FA0120ADF8040003208DF8060024
:102D700010208DF8070001A9FE48FDF7A9FF2020CB
:102D8000ADF8040018208DF8070001A9FA48FDF7F6
:102D90009FFF4020ADF8040001A9F748FDF798FF18
:102DA0008020ADF8040001A9F348FDF791FF01214F
:102DB000F048FEF73AF80020ADF808004FF48270B2
:102DC000ADF80A000020ADF80C000220ADF80E00AE
:102DD0000120ADF810004002ADF812000820ADF857
:102DE00014000020ADF816000720ADF8180002A965
:102DF000E248FEF7BDFB0121E048FEF75EFC07B0AC
:102E000000BD10B504462146DDA006F071FB002090
:102E100010BD10B504464FF48050E54908600AE043
:102E2000E3490868411EE24A116020B90020FFF71B
:102E3000E8FFC0B210BD0221D048FEF7C2FC002856
:102E4000EED02146CD48FEF769FC4FF48050D849BA
:102E500008600AE0D6490868411ED54A116020B9C9
:102E60000120FFF7CEFFC0B2E4E70121C348FEF71F
:102E7000A8FC0028EED0C148FEF752FCC0B2D9E74A
:102E800010B500240121BB48FDF7D1FF0520FFF755
:102E9000C0FF00BFFF20FFF7BCFF044604F00100A5
:102EA0000028F7D10121B348FDF7BFFF10BD10B5D1
:102EB0000121B048FDF7BBFF0620FFF7AAFF012163
:102EC000AC48FDF7B2FF10BD10B50446FFF7EFFFA9
:102ED000FFF7D6FF0121A748FDF7A9FF2020FFF744
:102EE00098FFC4F30740FFF794FFC4F30720FFF7F0
:102EF00090FFE0B2FFF78DFF01219E48FDF795FF9F
:102F0000FFF7BEFF10BD10B5FFF7D1FF01219948B3
:102F1000FDF78DFFC720FFF77CFF01219548FDF7E6
:102F200084FFFFF7ADFF10BD70B505460C46164691
:102F3000FFF7BDFF01218F48FDF779FF0220FFF762
:102F400068FFC4F30740FFF764FFC4F30720FFF7EF
:102F500060FFE0B2FFF75DFFB6F5807F04DD4FF460
:102F6000807694A006F0C4FA03E02878FFF751FFBA
:102F70006D1C301EA6F101018EB2F6D101217D48F3
:102F8000FDF753FFFFF77CFF70BD2DE9F05F0746AB
:102F90000E4614464FF00008C146C2460025AB4617
:102FA00006F0FF0ACAF10000C5B22046E11704EBA3
:102FB0001161C1F30728E11704EB11610912A4EBB9
:102FC000012101F0FF09BAF1000F20D1B8F1000F83
:102FD00005D1224631463846FFF7A6FF64E009E0F6
:102FE0004FF4807231463846FFF79EFF06F5807633
:102FF00007F58077B8F10000A8F1010101F0FF08A2
:10300000EED14A4631463846FFF78EFF4CE0B8F124
:10301000000F18D1A94510DDA9EB050000F0FF0B4A
:103020002A4631463846FFF77FFF2E442F445A4642
:1030300031463846FFF778FF36E0224631463846BB
:10304000FFF772FF30E0601B84B22046E11704EB0B
:103050001161C1F30728E11704EB11610912A4EB18
:10306000012101F0FF092A4631463846FFF75CFF8F
:103070002E442F4409E04FF4807231463846FFF762
:1030800053FF06F5807607F58077B8F10000A8F1C8
:10309000010101F0FF08EED1B9F1000F04D04A465A
:1030A00031463846FFF740FFBDE8F09F70B5054652
:1030B0000C46164601212F48FDF7B9FE0320FFF705
:1030C000A8FEC4F30740FFF7A4FEC4F30720FFF7F0
:1030D000A0FEE0B2FFF79DFE04E0FF20FFF799FE9F
:1030E00028706D1C301EA6F101018EB2F5D10121B0
:1030F0002048FDF79AFE70BD2DE9F041002400251F
:103100000026002701211B48FDF791FE9F20FFF7B5
:1031100080FEFF20FFF77DFE0546FF20FFF779FECA
:103120000646FF20FFF775FE074601211148FDF70F
:103130007CFE280440EA062040EA07042046BDE859
:10314000F08110B5002401210A48FDF770FEAB2084
:10315000FFF75FFEFF20FFF75CFEFF20FFF759FE41
:10316000FF20FFF756FEFF20FFF753FE0446012124
:10317000004839E0001001400008014000300140E3
:103180003C3C2D464C4153482D4552524F522D3E0A
:103190003E2053504920B5C8B4FDB3ACCAB1216537
:1031A00072726F72436F6465203D2025640A0000CF
:1031B000480000203C3C2D464C4153482D4552527E
:1031C0004F522D3E3E205350495F464C4153485F7D
:1031D00050616765577269746520746F6F206C6108
:1031E000726765210A000000FDF71FFE204610BD32
:1031F00010B5044601213248FDF719FE0320FFF700
:1032000008FEC4F30740FFF704FEC4F30720FFF7EE
:1032100000FEE0B2FFF7FDFD10BD10B5FF20FFF787
:10322000F8FD10BD10B504464FF4805025490860E4
:1032300009E024490868411E224A116018B9022099
:10324000FFF7DFFD10BD02211F48FEF7BAFA002884
:10325000EFD021461C48FEF761FA4FF4805019491F
:10326000086009E017490868411E164A116018B93C
:103270000320FFF7C6FDE5E701211348FEF7A1FA99
:103280000028EFD01048FEF74BFADBE710B501211C
:103290000B48FDF7CCFDB920FFF7BBFD0121084825
:1032A000FDF7C3FD10BD10B501210548FDF7BFFDB9
:1032B000AB20FFF7AEFD01210148FDF7B6FD10BDC3
:1032C00000100140480000200030014001B502E03C
:1032D0000098401E009000980028F9D108BD08B55C
:1032E00001216020FEF716F803208DF80200182057
:1032F0008DF803004FF48040ADF800006946FE48A9
:10330000FDF7E6FC4FF40040ADF800006946FA48CE
:10331000FDF7DEFC0120ADF800006946F648FDF738
:10332000D7FC0220ADF800006946F348FDF7D0FC59
:103330008020ADF800006946F048FDF7C9FC4FF465
:103340008070ADF800006946EC48FDF7C1FC4FF411
:103350000070ADF800006946E848FDF7B9FC4FF48D
:103360008060ADF800006946E448FDF7B1FC4FF419
:103370000060ADF800006946E048FDF7A9FC4FF495
:103380008050ADF800006946DC48FDF7A1FC4FF421
:103390000050ADF800006946D848FDF799FC4FF49D
:1033A0008040ADF800006946D448FDF791FC4FF429
:1033B0000040ADF800006946D048FDF789FC4FF4A5
:1033C0008070ADF800006946CB48FDF781FC4FF4F2
:1033D0000070ADF800006946C748FDF779FC4FF46E
:1033E0008060ADF800006946C348FDF771FC03201A
:1033F0008DF8020018208DF803001020ADF80000B1
:103400006946BD48FDF764FC2020ADF80000694620
:10341000B948FDF75DFC8020ADF800006946B6486C
:10342000FDF756FC4FF40060ADF800006946B24865
:10343000FDF74EFC10208DF8030003208DF80200EC
:103440000220ADF800006946AC48FDF741FC1020B1
:103450008DF8030003208DF802004FF48050ADF882
:1034600000006946A448FDF733FC08BD00B597B0DD
:1034700001210802FDF741FF012001900420039083
:103480008006079000200290049005900690089016
:10349000099008200A9010200B9000200C900E90AC
:1034A0000F9010904FF480501190002012901390C4
:1034B000149001A81590169008A8FDF7EFF80121C7
:1034C0000020FDF753FA17B000BD10B5CF2006F06D
:1034D00005F8002006F006F8812006F003F83020F9
:1034E00006F000F8ED2005F0F9FF642005F0FAFF82
:1034F000032005F0F7FF122005F0F4FF812005F00E
:10350000F1FFE82005F0EAFF852005F0EBFF102031
:1035100005F0E8FF782005F0E5FFCB2005F0DEFFA1
:10352000392005F0DFFF2C2005F0DCFF002005F03E
:10353000D9FF342005F0D6FF022005F0D3FFF72095
:1035400005F0CCFF202005F0CDFFEA2005F0C6FFF6
:10355000002005F0C7FF002005F0C4FFB12005F0F2
:10356000BDFF002005F0BEFF1B2005F0BBFFB6200D
:1035700005F0B4FF0A2005F0B5FFA22005F0B2FF68
:10358000C02005F0ABFF352005F0ACFFC12005F0F1
:10359000A5FF112005F0A6FFC52005F09FFF4520DF
:1035A00005F0A0FF452005F09DFFC72005F096FF20
:1035B000A22005F097FFF22005F090FF002005F013
:1035C00091FF262005F08AFF012005F08BFFE02007
:1035D00005F084FF0F2005F085FF262005F082FF0F
:1035E000242005F07FFF0B2005F07CFF0E2005F066
:1035F00079FF092005F076FF542005F073FFA8201D
:1036000005F070FF462005F06DFF0C2005F06AFF05
:10361000172005F067FF092005F064FF0F2005F073
:1036200061FF072005F05EFF002005F05BFFE12051
:1036300005F054FF002005F055FF192005F052FF5A
:103640001B2005F04FFF042005F04CFF102005F073
:1036500049FF072005F046FF2A2005F043FF4720D9
:1036600005F040FF392005F03DFF032005F03AFF4B
:10367000062005F037FF062005F034FF302005F066
:1036800031FF382005F02EFF0F2005F02BFF3620EC
:1036900005F024FFC82005F025FF2A2005F01EFFB5
:1036A000002005F01FFF002005F01CFF002005F0A2
:1036B00019FFEF2005F016FF2B2005F00FFF00206B
:1036C00005F010FF002005F00DFF012005F00AFFB6
:1036D0003F2005F007FF3A2005F000FF552005F0D8
:1036E00001FF112005F0FAFE0548FFF7EFFD292044
:1036F00005F0F4FE10BD0000001401400018014068
:10370000FCBF020010B50446072C00DD10BDFE48CA
:103710000470204604EBD0714910A4EB410139B983
:10372000F020FA4908804FF4A070F949088006E0BB
:103730004FF4A070F5490880F020F5490880362044
:1037400005F0CCFE082141EA441005F0CBFE2A200A
:1037500005F0C4FE002005F0C5FE002005F0C2FE05
:10376000EA490988491EC1F3072005F0BBFEE74975
:103770000978491EC8B205F0B5FE2B2005F0AEFE53
:10378000002005F0AFFE002005F0ACFEE0490988FE
:10379000491EC1F3072005F0A5FEDD490978491E41
:1037A000C8B205F09FFE2C2005F098FE00BFADE7E3
:1037B00010B50221D748FDF73AFB40F6FF20FFF78E
:1037C00085FD0221D348FDF730FB40F6FF20FFF7CF
:1037D0007DFD10BD10B504462CB14FF48051CE488C
:1037E000FDF725FB04E04FF48051CB48FDF71DFBAE
:1037F00010BD10B5FFF773FDFFF738FE0120FFF78E
:10380000E9FFFFF7D5FFFFF760FEBF480078FFF73D
:1038100079FF10BD2DE9F04104460D4616461F46BE
:103820002A2005F05BFE201205F05CFEE0B205F0F8
:1038300059FEA119491EC1F30F2005F053FEA1192D
:10384000491EC8B205F04EFE2B2005F047FE281297
:1038500005F048FEE8B205F045FEE919491EC1F33E
:103860000F2005F03FFEE919491EC8B205F03AFEE7
:10387000BDE8F08170B504460D4601231A4629467D
:103880002046FFF7C7FF70BD70B504460D46002601
:103890002C2005F023FE00BF03E0284605F022FEA1
:1038A000761CA642F9D370BD2DE9F04106460F46BD
:1038B00014461D462B46224639463046FFF7AAFFDE
:1038C00004FB05F095490988FFF7DEFFBDE8F081AC
:1038D00070B505460C468D48008885420CDA8C4848
:1038E0000088844208DA21462846FFF7C3FF8C4847
:1038F00001880120FFF7C8FF70BD70B500240025C6
:1039000000262E2005F0EAFD05F0E2FD044605F054
:10391000DFFD044605F0DCFD064605F0D9FD054651
:10392000E012C002A91240EA411040EAE62070BD50
:1039300070B504460D4629462046FFF79BFFFFF76A
:10394000DCFF0646304670BD2DE9FF4F83B081464F
:103950004FF0000AD3460598A0EB09050499069894
:10396000461ACDF8049004980090002D01DD01273F
:1039700005E00DB9002702E04FF0FF376D42002E41
:1039800002DD4FF0010806E016B94FF0000802E032
:103990004FF0FF387642B54201DD2C4600E0344658
:1039A0000020029019E0DDE90010FFF791FFAA4422
:1039B000B344A24505DDAAEB040A0198384480B25D
:1039C0000190A34505DDABEB040B0098404480B2A9
:1039D00000900298401C80B20290611C02988842BC
:1039E000E1DD07B0BDE8F08F2DE9F04104460D465A
:1039F00016461F46DDF81880B8F1000F0CD03B4684
:103A0000324629462046FFF705FF06FB07F04449EA
:103A10000988FFF739FF27E0A019401E82B22B4624
:103A200029462046FFF790FFE819401E83B2A019EF
:103A3000401E82B2E819401E81B22046FFF784FF83
:103A4000E819401E83B2224629462046FFF77CFF34
:103A5000E919491E8BB2A119491E8AB2A119491E42
:103A600088B22946FFF770FFBDE8F0812DE9F05FCD
:103A700005460E4691469B4600240FFA89F703201F
:103A8000A0EB49000FFA80FA97E0BBF1000F50D08D
:103A9000A0464BE006EB080291B22A1990B2FFF75C
:103AA00017FF06EB080291B22A1B90B2FFF710FF36
:103AB000321991B2A5EB080290B2FFF709FF321B51
:103AC00091B2A5EB080290B2FFF702FFA6EB080245
:103AD00091B22A1B90B2FFF7FBFEA6EB080291B24F
:103AE0002A1990B2FFF7F4FE321B91B205EB0802DF
:103AF00090B2FFF7EDFE321991B205EB080290B2D9
:103B0000FFF7E6FE0EE00000500000204C00002011
:103B10004E00002000180140001401405A0000200F
:103B20005800002008F101000FFA80F8B845B1DD17
:103B30002FE0F21991B22A1990B2FFF7C9FEF219DB
:103B400091B22A1B90B2FFF7C3FE321991B2EA1B61
:103B500090B2FFF7BDFE321B91B2EA1B90B2FFF7A5
:103B6000B7FEF21B91B22A1B90B2FFF7B1FEF21B17
:103B700091B22A1990B2FFF7ABFE321B91B2EA194B
:103B800090B2FFF7A5FE321991B2EA1990B2FFF791
:103B90009FFE601C04B2BAF1000F05DAA000801D80
:103BA00050440FFA80FA07E0E01B80000A305044CE
:103BB0000FFA80FA781E07B200BFBC427FF765AFEC
:103BC000BDE8F09F2DE9F05F804689461646A6F1D4
:103BD00020001FFA80FAFD4909688988FB4A1268AB
:103BE000D28801FB02F0C11700EB5171C1F3C70786
:103BF000F648006800680AFB070BF4480068C388B1
:103C0000F2480068828849464046FFF703FE2C20B0
:103C100005F064FC002416E0002510E01BF8040009
:103C200080212941084020B1E948008805F05AFC6C
:103C300003E0E848008805F055FC681CC5B2082D73
:103C4000ECDB601CC4B2BC42E6DBBDE8F09F70B5A3
:103C500004460D46002624E03046DC490968898880
:103C60000844DD490988884205DD0026D7480068F8
:103C7000C088204484B22046D4490968C9880844D1
:103C8000D6490988884201DD002600242A78214689
:103C90003046FFF797FF6D1CCC48006880883044A1
:103CA00086B228780028D7D170BD70B505460E467B
:103CB000144624E02846C549096889880844C6494D
:103CC0000988884205DD0025C0480068C088304466
:103CD00086B23046BD490968C9880844BF49098889
:103CE000884201DD00250026227831462846FFF76C
:103CF00069FF641CB54800688088284485B2207834
:103D00000028D7D170BD70B505460E46144624E094
:103D10003046AE490968C9880844B04909888842D4
:103D200005DD0026A94800688088284485B2284619
:103D3000A649096889880844A7490988884201DD9D
:103D400000250026227831462846FFF73BFF641CF9
:103D50009E480068C088304486B220780028D7D1B9
:103D600070BD2DE9F04389B080468946174610237F
:103D70001A4649464046FFF74DFD2C2005F0AEFBA4
:103D8000394601A8FEF7BAFF002422E001A810F886
:103D900014604FF6FF7000EA0626012000EB440095
:103DA00001A9085C064300250FE04FF400402841BC
:103DB000304020B18648008805F094FB03E0854838
:103DC000008805F08FFB681CC5B2102DEDDB601C70
:103DD000C4B2102CDADB09B0BDE8F0832DE9F04164
:103DE00005460F4614461FE0284610307A490988D8
:103DF000884203DD002507F1100087B238461030F5
:103E000076490988884201DD00250027268830028E
:103E100000EB262086B2324639462846FFF7A1FF3E
:103E200005F1100085B2A41C20780028DCD1BDE883
:103E3000F0812DE9F04105460C46002648E0207847
:103E40007E2825DC30466149096889880844624932
:103E50000988884205DD00265C480068C08828443F
:103E600085B2284659490968C98808445B490988C8
:103E7000884201DD00260025227829463046FFF7DA
:103E8000A1FE524800688088304486B2641C1FE05E
:103E90003046103050490988884203DD002605F17C
:103EA000100085B2284610304C490988884201DD4F
:103EB000002600252788380200EB272087B23A46E3
:103EC00029463046FFF74DFF06F1100086B2A41CCC
:103ED00020780028B3D1BDE8F0812DE9F0410546F6
:103EE0000E46144648E020787E2825DC28463749CF
:103EF00009688988084438490988884205DD002511
:103F000032480068C088304486B230462F4909687C
:103F1000C988084431490988884201DD0025002606
:103F2000227831462846FFF74DFE284800688088F1
:103F3000284485B2641C1FE02846103026490988B1
:103F4000884203DD002506F1100086B230461030AD
:103F500022490988884201DD002500262788380289
:103F600000EB272087B23A4631462846FFF7F9FE94
:103F700005F1100085B2A41C20780028B3D1BDE85B
:103F8000F0812DE9F04106460D46144636E02846FC
:103F9000103012490988884203DD002506F110001F
:103FA00086B2304610300C490988884201DD00266F
:103FB000002520787E2813DC227829463046FFF73A
:103FC00001FE641C05F1100085B217E054000020CA
:103FD000580000205A0000204C0000204E00002015
:103FE0002788380200EB272087B23A462946304618
:103FF000FFF7B7FE05F1100085B2A41C2078002859
:10400000C5D1BDE8F0812DE9FC4F0C461E464FEAB4
:10401000004A9AFBF2FA0AF1010ACDF804A04FEA2D
:10402000044A9AFBF6FA0AF1010ACDF800A04FF013
:104030000009202801DBBDE8FC8F00FB04FABAF17F
:10404000000F00D1F7E700FB04FABAF5806F00DB40
:10405000F1E702FB06FABAF1000F00D1EBE702FB31
:1040600006FABAF5804F00DBE5E7EB4BDDF834A04C
:10407000BAF1000F2BD100211FE0002517E0DDF879
:104080002CA01AF801A04FF0800B4BFA05FB0AEAAE
:104090000B0ABAF1000F02D04FF0010A01E04FF015
:1040A000000A03F801AB05F1010A1FFA8AF5082D91
:1040B000E5DB01F1010A1FFA8AF104FB00FA4FEA7D
:1040C000EA7B0AEB5B7BB1EBEB0FD6DB2AE000214E
:1040D0001FE0002517E0DDF82CA01AF801A04FF032
:1040E000800B4BFA05FB0AEA0B0ABAF1000F02D06B
:1040F0004FF0010A01E04FF0000A03F801AB05F1AF
:10410000010A1FFA8AF5082DE5DB01F1010A1FFA01
:104110008AF104FB00FA4FEAEA7B0AEB5B7BB1EB26
:10412000EB0FD6DBBC4BBD4F4FF0000C1AE04FF04D
:10413000000A4FEA194B00FB0B3ED0460AE00EEB9B
:104140001A4B9BF800B007F808B0DDF804B0DA4469
:1041500008F101089045F2D3DDF800B0D9441744C6
:104160000CF1010CB445E2D3DFF8B0A2CDF830A0D9
:10417000DDF830A00AF1010ACDF830A000BF5AE7FF
:104180002DE9F05F81468A4614461D46DDE90A6B3B
:104190000027B8462B46224651464846FFF73AFBD1
:1041A0002C2005F09BF900BF14E04FF000080EE052
:1041B00016F8011B594504D19948008805F092F979
:1041C00003E09848008805F08DF908F10108A04542
:1041D000EED37F1CAF42E8D3BDE8F09F2DE9F04F4E
:1041E0008FB00646884614469946DDE9185B274697
:1041F00069E0304638448C490988884204DD00264D
:1042000008EB09001FFA80F84046484487490988AE
:10421000884201DD0026B0462878802825DD274623
:10422000B5F800A04FEA0A2000EB2A201FFA80FA16
:10423000514605A8FEF762FD012105AA0E984B46DE
:10424000CDE9002002913A4610210846FFF7DBFE37
:1042500072484B463A464146CDE9000B3046FFF7DF
:104260008FFFF01986B2AD1C2DE0204604EBD07113
:10427000C1F34F0728782038C0B20D9000236C4856
:10428000C288DDE90D015043694A92885043C21744
:10429000049000EB5270664A126802EBE0008DE871
:1042A0000B004B463A4618211020FFF7ACFE5B4846
:1042B0004B463A464146CDE9000B3046FFF760FFDA
:1042C000F01986B26D1C2878002892D10FB0BDE895
:1042D000F08F2DE9F04F8FB080460E4614461F46F2
:1042E000DDE9185A0E946BE0304620444E490988A7
:1042F000884204DD002608EB04001FFA80F84046DF
:1043000038444A490988884201DD0026B0462878A9
:10431000802825DD0E94B5F800904FEA092000EBC7
:1043200029201FFA80F9494604A8FEF7E7FC01217D
:1043300004AA0D983B46CDE90020029110210846C1
:104340000E9AFFF760FE35483B46CDE9000A31463C
:1043500040460E9AFFF714FFF01986B2AD1C2FE00D
:10436000204604EBD071C1F34F010E91287820381C
:10437000C0B20C9000232E48C288DDE90C015043E6
:104380002B4A928800FB02FB4FEAEB700BEB50705C
:10439000274A126802EBE0008DE80B003B4618212B
:1043A00010200E9AFFF72FFE1C483B46CDE9000A6D
:1043B000314640460E9AFFF7E3FEF01986B26D1CB7
:1043C0002878002890D10FB0BDE8F08F1949086017
:1043D0007047184800687047124A1080104A1180D0
:1043E0007047104A128802800D4A12880A8070476E
:1043F0000C49088070470A490880704770B5044628
:10440000FFF7E7FFC5882B460748028821460020B2
:10441000FFF74AFA70BD0000B8400020B800002045
:104420005A000020580000204C0000204E000020C0
:10443000340000205400002008B54FF4A060FBF7C2
:1044400083FF27208DF8000000208DF801008DF8F3
:10445000020001208DF803006846FBF77AFF08BDD3
:1044600000B585B001218804FCF761FF0121082017
:10447000FCF750FF4FF48060ADF8100018208DF865
:10448000130003208DF8120004A9FA48FCF720FC61
:104490004FF40060ADF8100004208DF8130004A95B
:1044A000F448FCF715FC4FF4E13000900020ADF823
:1044B0000400ADF80600ADF80800ADF80C000C20C3
:1044C000ADF80A006946EC48FEF703F9012240F214
:1044D0002551E948FEF795F9012240F22441E648CA
:1044E000FEF78FF9FFF7A8FF0121E348FEF77DF9FA
:1044F00005B000BD08B501210820FCF70BFF4FF403
:104500008070ADF8000010208DF8030003208DF8B6
:1045100002006946D748FCF7DBFB01210820FCF7C5
:10452000F9FE4FF40070ADF800006946D148FCF781
:10453000CFFB08BD10B5FFF7DDFFFFF791FF4FF48C
:104540000071CC48FCF771FC4FF48071C948FCF74E
:104550006EFC10BD10B54FF40071C648FCF767FC47
:10456000C648FEF748FB4FF40071C248FCF75DFCFB
:1045700010BD2DE9F04106460C4615461F46C048C1
:10458000B0F800046FF30E00BD49A1F800043246F4
:10459000BCA1B94801F0B7FF1CB915B90120BDE8AD
:1045A000F0814FF47A7107FB01F0FEF724FB002045
:1045B000B349B1F80014C1F30E01B14A5054114689
:1045C000B2A004F095FFB4B1ADB12146AC4803F000
:1045D000CDFF08B1012000E0002040B92946A848DD
:1045E00003F0C4FF08B1012000E0002008B1012061
:1045F000D5E70020D3E744B12146A14803F0B6FF38
:1046000008B10120CBE70020C9E729469C4803F008
:10461000ADFF08B10120C2E70020C0E710B50024BB
:104620004FF400719348FCF700FC9948FEF7E3FA59
:104630000CE04FF4FA73002296A197A0FFF799FFC0
:1046400000B110BDFFF786FF601CC4B20A2CF0DB7E
:1046500000BFF6E710B5044624B1012C0AD0022CA5
:1046600018D10FE040F6C4138CA28AA18EA0FFF7E8
:1046700080FF10BD40F6C41388A286A18DA0FFF76D
:1046800078FFF6E740F6C41384A282A18CA0FFF75E
:1046900070FFEEE70020ECE730B59FB004460D4612
:1046A0002B46224689A101A804F032FF41F288334B
:1046B000002278A101A8FFF75CFF1FB030BD70B5E4
:1046C000A0B004460D4616462B46224684A102A8F9
:1046D000009604F01DFF4FF47A7300226DA102A82A
:1046E000FFF747FF20B070BD10B586B004460CB18F
:1046F000012000E0002002467FA101A804F008FF8D
:104700004FF4FA73002263A101A8FFF732FF06B04D
:1047100010BDF0B5B9B006460F4614461D466421DB
:1047200020A803F018FF16B1012E10D107E03B4678
:1047300075A276A120A8009404F0EAFE08E03B46AA
:1047400076A272A120A8009404F0E2FE00E000BF6F
:1047500000BF052D06DA20AB2A4671A102A804F09D
:10476000D7FE04E020AA73A102A804F0D1FE4FF402
:104770007A6374A247A102A8FFF7FBFE39B0F0BD2F
:1047800010B54FF4FA73002242A172A0FFF7F1FEB8
:1047900008B9002010BD4FF4FA7372A23DA172A0B7
:1047A000FFF7E7FEF6E710B54FF480713148FCF7EC
:1047B0003CFBFFF733FF0020FFF74CFF00BF6DA16C
:1047C0006FA0FFF769FF0028F9D00020FFF78CFFEA
:1047D00000BF05236CA26EA10020FFF79AFF0028FE
:1047E000F7D000BFFFF7CCFF0028FBD06CA004F08F
:1047F0007FFE10BD70B5BCB004460D461646FCB138
:104800002B4601226CA11EA804F082FE32466FA145
:10481000684604F07DFE4FF4FA7300221DA11EA825
:10482000FFF7A7FE50B14FF4FA73002219A16846B2
:10483000FFF79FFE10B101203CB070BD0020FBE7E8
:104840002B4600225CA11EA804F062FE4FF4FA730E
:10485000002210A11EA8FFF78CFEEDE710B54FF463
:10486000FA7300220BA15DA0FFF783FE00B1BDE04B
:10487000D1E00000000C01400048004020A10700EA
:10488000B844002025730D0A0000000025730000C5
:1048900040420F004F4B0000415400006E6F2063F8
:1048A00068616E676500000041542B43574D4F44CB
:1048B000453D310041542B43574D4F44453D320057
:1048C00041542B43574D4F44453D330041542B43F6
:1048D000574A41503D222573222C22257322000085
:1048E00041542B43575341503D222573222C2225FE
:1048F00073222C312C25640041542B4349504D55D3
:10490000583D2564000000005443500022257322C6
:104910002C222573222C25730000000055445000E2
:1049200041542B43495053544152543D25642C2546
:104930007300000041542B43495053544152543D9D
:1049400025730000414C5245415920434F4E4E457E
:104950004354000041542B4349504D4F44453D3191
:10496000000000003E00000041542B4349505345D5
:104970004E44000031323334363636360000000003
:104980005445535400000000383138310000000015
:104990007777772E626967696F742E6E6574000091
:1049A0000D0AC5E4D6C3204553503832363620CDE3
:1049B000EAB1CF0D0A00000041542B434950534542
:1049C000525645523D25642C2573000041542B431B
:1049D000495053544F3D25730000000041542B4370
:1049E00049505354415455530000000075A1784874
:1049F00003F0BCFD08B1022010BD76A1744803F09D
:104A0000B5FD08B10320F7E775A1714803F0AEFDCD
:104A100008B10420F0E70020EEE710B500244FF4C1
:104A2000FA730022AFF29411AFF25000FFF7A1FD2C
:104A3000002831D06DA1664803F098FD10B144F014
:104A4000010401E024F001046CA1614803F08EFD33
:104A500010B144F0020401E024F002046BA15C48B0
:104A600003F084FD10B144F0040401E024F00404D8
:104A70006AA1574803F07AFD10B144F0080401E040
:104A800024F0080469A1524803F070FD10B144F00D
:104A9000100401E024F01004204610BD2DE9F0417F
:104AA00005460F464FF4FA730022AFF2182163A0B7
:104AB000FFF75FFD64A1464803F058FD06460EB1BE
:104AC000B61D02E00020BDE8F081002409E0305D61
:104AD0002855285D222802D10020285503E0601CBB
:104AE000C4B2BC42F3DB00BF0120ECE710B558486C
:104AF000FEF781F857A1584801F005FD5748FEF729
:104B00007AF810BD2DE9F04186B007460C461546EF
:104B10001E464FF0000847B12246AFF290214E48A2
:104B200001F0F1FC4FF001081CE0052E06DAAB1C89
:104B300032464BA101A804F0EBFC04E0AA1C4DA1F5
:104B400001A804F0E5FC4FF47A7300224DA101A8FE
:104B5000FFF70FFD4FF47A7300224BA12046FFF7B9
:104B600008FD8046404606B0BDE8F08170B50446B9
:104B700000251748B0F800046FF30E001449A1F89F
:104B800000040846B0F8000420F40040A1F8000436
:104B900000BF0F48B0F80004C00B0028F9D0002077
:104BA0000B49B1F80014C1F30E01094A50540CB17D
:104BB000154605E036A1064803F0D8FC00B1044DC7
:104BC000284670BD5354415455533A320D0A0000E3
:104BD000B84400205354415455533A330D0A000051
:104BE0005354415455533A340D0A00002B43495055
:104BF0005354415455533A302C0000002B43495034
:104C00005354415455533A312C0000002B43495022
:104C10005354415455533A322C0000002B43495011
:104C20005354415455533A332C0000002B43495000
:104C30005354415455533A342C00000041542B43F3
:104C40004946535200000000415049502C220000B8
:104C500040420F002B2B2B000048004020A10700F2
:104C600041542B43495053454E443D25642C256403
:104C70000000000041542B43495053454E443D250C
:104C8000640000003E20000053454E44204F4B007E
:104C90002B4950440000000010B50446FB48007842
:104CA000002826D0FFF722FF00BFFFF7D7FD2070B6
:104CB00020780028F9D02078042815D1F4A004F039
:104CC00017FC00BFFAA1FDA0FFF7E6FC0028F9D011
:104CD00000BF0523FBA2FDA10020FFF71AFD00285D
:104CE000F7D0FEA004F004FC00BFFFF749FD002848
:104CF000FBD010BD2DE9F04389B00746384602F0DD
:104D0000A6FC04461CB9002009B0BDE8F083FAA156
:104D1000204602F02EFF05462E690722F7A13046F5
:104D200003F054FC70B9F7480168F748006801F0D7
:104D30007DFCF648FDF75FFFF2480168F248006825
:104D400001F064FC0922F2A1304603F03FFC70B987
:104D5000EC480168EC48006801F068FCEB48FDF79E
:104D60004AFFE8480168E848006801F04FFC052266
:104D7000EAA1304603F02AFC98B9EAA1204602F0E5
:104D8000F8FED0F810802422E7A1684603F0CAFBA1
:104D90006946404601F066FC6946ECA004F0A8FBB9
:104DA00000BF0322EBA1304603F010FC00287DD1A8
:104DB00001F05AFDE8490968401A0A2876D9E7A1A6
:104DC000204602F0D6FED0F81080D6A1204602F090
:104DD000D0FED0F8109001F047FDDF4908600322B3
:104DE000DFA1404603F0F2FBA0B91822DDA103A821
:104DF00003F098FB4FF48050E0490860E048FDF76D
:104E0000FAFE03A9D1A004F073FB03A9484601F000
:104E100029FC1BE00322DBA1404603F0D7FBA8B925
:104E20001822D9A103A803F07DFB4FF48050D34989
:104E3000091D0860D248FDF7DEFE03A9C3A004F0F7
:104E400057FB03A9484601F00DFC00BF0322D4A183
:104E5000404603F0BBFBA0B91C22D2A102A803F07C
:104E600061FB4FF40050C5490860C548FDF7C3FE1B
:104E700002A9B6A004F03CFB02A9484601F0F2FBEF
:104E80001DE00322CEA1404603F0A0FBB8B91C22CE
:104E9000CCA102A803F046FB4FF40050B749091D0E
:104EA0000860B748FDF7A7FE02A900E076E0A7A0DA
:104EB00004F01EFB02A9484601F0D4FB00BF032208
:104EC000C7A1404603F082FBA0B91C22C5A102A8DD
:104ED00003F028FB4FF48040A8490860A848FDF77C
:104EE0008AFE02A999A004F003FB02A9484601F03A
:104EF000B9FB1BE00322C2A1404603F067FBA8B93F
:104F00001C22C0A102A803F00DFB4FF480409B4976
:104F1000091D08609A48FDF76EFE02A98BA004F0F7
:104F2000E7FA02A9484601F09DFB00BF0322BCA19D
:104F3000404603F04BFBA0B91C22BAA102A803F023
:104F4000F1FA4FF400408D4908608D48FDF753FE9B
:104F500002A97EA004F0CCFA02A9484601F082FB27
:104F60001BE00322B6A1404603F030FBA8B91C2287
:104F7000B4A102A803F0D6FA4FF400407F49091DFE
:104F800008607F48FDF737FE02A970A004F0B0FA70
:104F900002A9484601F066FB00BF00BF14B12046DD
:104FA00001F0F2FC0120AFE610B5AD48B0F8000406
:104FB000C00B28B3002240F22551AA48FDF721FC7E
:104FC0000020A749B1F80014C1F30E01A44A5054BF
:104FD0001046FFF78FFEA248B0F800046FF30E00F2
:104FE0009F49A1F800040846B0F8000420F40040EE
:104FF000A1F80004012240F225519A48FDF701FC76
:1050000010BDF0B5A3B00446642108A803F0A3FACC
:10501000002580219448FBF7EEFE08B193A500E03F
:1050200094A501F0EDF821A800F0B1FE012814D1FB
:105030009248006803F0BCFD02AA23C29DF88700D5
:105040009DF88610CDE900109DF885309DF88420EC
:105050008B49204604F05CFA03E08AA1204604F064
:1050600057FA21468CA004F043FA8C48FFF7AEF9BA
:1050700047F6FF70FFF7BCF99DF887309DF8862052
:1050800087A108A804F044FA08A811E15C000020F8
:105090000D0AD5FDD4DAD6D8C1ACC8C8B5E3BACDAF
:1050A000B7FECEF1C6F7202E2E2E2E2E2E0D0A0084
:1050B000313233343636363600000000544553540E
:1050C0000000000038313831000000007777772E7B
:1050D000626967696F742E6E657400000D0AD6D818
:1050E000C1ACC8C8B5E3BACDB7FECEF1C6F7B3C9F7
:1050F000B9A60D0A000000004D00000057454C43C2
:105100004F4D4500700000206C00002020A10700DA
:10511000636F6E6E65637465640000006C6F676931
:105120006E000000494400004465617220667269A7
:10513000656E642C2077656C636F6D6520746F20DD
:10514000424947494F5420210000000025732F7227
:105150002F6E00007361790068000020430000009A
:10516000542B53006B312D2D7761726D696E675F23
:105170006B3120737461727465640000100C01401F
:1051800040420F00542B50006B312D2D7761726D12
:10519000696E675F6B312070617573656400000034
:1051A000542D53006B322D2D636F6F6C696E675FEA
:1051B0007377697463682073746172746564000046
:1051C000542D50006B322D2D636F6F6C696E675FCD
:1051D000737769746368207061757365640000009B
:1051E000482B53006B332D2D68756D6965725F73A5
:1051F0007769746368207374617274656400000079
:10520000482B50006B332D2D68756D6965725F7387
:1052100077697463682070617573656400000000CD
:10522000482D53006B342D2D646568756D695F736F
:105230007769746368207374617274656400000038
:10524000482D50006B342D2D646568756D695F7352
:10525000776974636820706175736564000000008D
:10526000B84400200048004000100140D3D0C8CB13
:1052700000000000CEDEC8CB00000000940000203B
:1052800080DB000852656164204448543131204578
:1052900052524F52210D0A00257300002C000020AD
:1052A000CEC2B6C8A3BA25642E256420A1E60000AC
:1052B00003F06EF9FA490E88F11706EB5171C0EB55
:1052C000E100470808A820233A46F6A100902046AE
:1052D00004F01EF9FFF77DF8C08800EB40004004A1
:1052E000060C3046FFF78AF8FFF773F8C08800EB2A
:1052F00040004004060C21463046FEF79AFD4FF46C
:10530000FC60FFF775F89DF885309DF88420E7A1D3
:1053100008A804F0FDF808A803F03AF9E0490E885F
:10532000F11706EB5171C0EBE100470808A82023F4
:105330003A46DCA10090204604F0EAF8FFF749F86D
:10534000C088C004060C3046FFF758F8FFF741F854
:10535000C088C004060C21463046FEF76AFD4FF6B1
:10536000E070FFF745F8D548006803F021FC0646D9
:1053700032460B46D2A108A804F0CAF808A803F0E8
:1053800007F9C7490E88F11706EB5171C0EBE10030
:10539000470808A820233A46C2A10090204604F0FE
:1053A000B7F8FFF716F8C08800EB80004004060C41
:1053B0003046FFF723F8FFF70CF8C08800EB8000B9
:1053C0004004060C21463046FEF733FD4FF61F0021
:1053D000FFF70EF82A46BFA108A804F099F808A81C
:1053E00003F0D6F8AE490E88F11706EB5171C0EB09
:1053F000E100470808A820233A46AAA100902046C9
:1054000004F086F8FEF7E5FFC08800EB400080045A
:10541000060C3046FEF7F2FFFEF7DBFFC08800EB1C
:1054200040008004060C21463046FEF702FD802134
:10543000AD48FBF7E0FC0646AC4801689F480068B1
:10544000AB4A126804AB43C303929DF885009DF8F4
:105450008410A84A1268CDE9002102909DF8873097
:105460009DF88620A4480168A448006801F00AF964
:105470009DF88600142834DB9DF886001C2830DC5B
:105480009FA004F035F8A8A0009085480688F01782
:1054900006EB5070C010163842082D2381A120461B
:1054A00004F036F8A648FEF791FF4FF6FF70FEF7BE
:1054B0009FFFFEF78EFFC0880005060C3046FEF702
:1054C0009DFFFEF786FFC0880005060C214630468A
:1054D000FEF7AFFC4FF480509A4908604000086026
:1054E0006AE09DF88600142831DA97A004F000F8ED
:1054F0009DA000906A480688F01706EB5070C01017
:10550000103842082D2367A1204604F001F88C488A
:10551000FEF75CFF4FF6FF70FEF76AFFFEF759FFDC
:10552000C0880005060C3046FEF768FFFEF751FF05
:10553000C0880005060C21463046FEF77AFC4FF481
:105540000050804908604010091F086034E09DF851
:1055500086001C2830DD89A003F0CAFF8FA00090D0
:105560004F480688F01706EB5070C01010384208FC
:105570002D234CA1204603F0CBFF7148FEF726FFF8
:105580004FF6FF70FEF734FFFEF723FFC0880005DB
:10559000060C3046FEF732FFFEF71BFFC088000501
:1055A000060C21463046FEF744FC4FF48050654916
:1055B00008604000091F08609DF88400142836DB4D
:1055C0009DF88400552832DC79A003F091FF82A079
:1055D000009033480688F01706EB5070C01016385C
:1055E00042082D232FA1204603F092FF4FF4804064
:1055F00054490860400008605148FEF7E7FE4FF646
:10560000FF70FEF7F5FEFEF7E4FEC08800EB001029
:1056100086B23046FEF7F2FEFEF7DBFEC08800EBF6
:10562000001086B221463046FEF703FC34E19DF8B7
:105630008400142833DA6EA003F05AFF4FF40040C0
:10564000404908604010091F086072A0009014488B
:105650000688F01706EB5070C010103842082D2352
:1056600010A1204603F054FF3548FEF7AFFE4FF679
:10567000FF70FEF7BDFEFEF7ACFEC08800EB001029
:1056800086B23046FEF7BAFEFEF7A3FEC08800EBF6
:10569000001086B221463046FEF7CBFBFCE0C3E0AB
:1056A0004C000020252A632573000000CAAAB6C852
:1056B000A3BA25642E25642025250000940000202F
:1056C000B9E2D5D5B6C8A3BA252E3166204C757877
:1056D00000000000C8CBCCE5BAECCDE2BCECB2E2F5
:1056E000A3BA2573000000000010014080000020D4
:1056F0007C00002078000020740000206C00002056
:10570000B2D6B4A2BBB7BEB3CEC2B6C8D5FDB3A3A2
:10571000A3ACB9D8B1D5BCD3CEC2A1A2D6C6C0E481
:10572000C6F70D0A00000000BCD3CEC2C6F7B9D838
:10573000B1D5A3ACD6C6C0E4C6F7B9D8B1D5000080
:105740002C000020140C0140B2D6B4A2BBB7BEB3EB
:10575000CEC2B6C8B9FDB5CDA3ACBFAACABCBCD336
:10576000CEC22E2E2E0D0A00BCD3CEC2C6F7D7B4A1
:10577000CCACA3BABFAAC6F400000000B2D6B4A253
:10578000BBB7BEB3CEC2B6C8B9FDB8DFA3ACBFAA23
:10579000CABCD6C6C0E42E2E2E0D0A00D6C6C0E462
:1057A000C6F7D7B4CCACA3BABFAAC6F400000000B9
:1057B000B2D6B4A2BBB7BEB3CAAAB6C8D5FDB3A30E
:1057C000A3ACB9D8B1D5BCD3CAAAA1A2B3E9CAAA1D
:1057D000C6F70D0A00000000BCD3CAAAC6F7B9D8A4
:1057E000B1D5A3ACB3E9CAAAC6F7B9D8B1D5000000
:1057F000B2D6B4A2BBB7BEB3CAAAB6C8B9FDB5CDBE
:10580000A3ACBFAACABCBCD3CAAAA1A4A1A4A1A488
:105810000D0A0000BCD3CAAAC6F7D7B4CCACA3BA51
:10582000BFAAC6F4000000009DF88400552833DDAF
:10583000BBA003F05DFE4FF48040C2490860400009
:10584000091F0860C0A00090C4480688F01706EB46
:105850005070C010103842082D23AFF2B811204606
:1058600003F056FEBE48FEF7B1FD4FF6FF70FEF79F
:10587000BFFDFEF7AEFDC08800EB001086B23046DB
:10588000FEF7BCFDFEF7A5FDC08800EB001086B258
:1058900021463046FEF7CDFAB249B348006803F01E
:1058A000F1F93FD8B149B048006803F0E1F939D8BF
:1058B000AFA003F01DFE2020A249091F08600120AF
:1058C000091D08600220091F0860AEA00090A348CF
:1058D0000688F01706EB5070C0100E3842082D23D2
:1058E000AFF24021204603F013FE9D48FEF76EFD07
:1058F0004FF6FF70FEF77CFDFEF76BFDC08800EBF6
:10590000C0004004060C3046FEF778FDFEF761FD4E
:10591000C08800EBC0004004060C21463046FEF76C
:1059200088FA79E08F499048006803F0A1F936D2EF
:1059300098A003F0DDFD2020824908600120086066
:105940000220086098A0009084480688F01706EBB3
:105950005070C010103842082D23AFF2B8212046F5
:1059600003F0D6FD7E48FEF731FD4FF6FF70FEF7DF
:105970003FFDFEF72EFDC08800EBC0004004060C82
:105980003046FEF73BFDFEF724FDC08800EBC0006B
:105990004004060C21463046FEF74BFA3CE07349C2
:1059A0007148006803F06EF936D284A003F0A0FDC0
:1059B0002020644908600120091F08600220086057
:1059C00083A0009065480688F01706EB5070C01061
:1059D000103842082D23AFF23431204603F098FDF1
:1059E0005F48FEF7F3FC4FF6E070FEF701FDFEF7AF
:1059F000F0FCC08800EBC0004004060C3046FEF707
:105A0000FDFCFEF7E6FCC08800EBC0004004060C7D
:105A100021463046FEF70DFA23B0F0BD10B500F078
:105A200023FF70490968401A49F64041884202D86C
:105A30006C48006848B96C4801686C48006800F020
:105A4000E5FD00F011FF6749086000F00DFF6849AF
:105A50000968401A6749884205D900F0F7FD00F04F
:105A600003FF6349086010BD9CB0642102A802F0E6
:105A700072FD002460A003F03BFDFEF794FEFDF7ED
:105A800055F800F06BFE00F0DFF800F0FCFA00F0D3
:105A900009F9FDF7AEFE0620FDF734FE3048FEF7AB
:105AA00095FC00214FF47840FEF796FC5948038896
:105AB0002A48028800210846FDF7F6FE56A4204633
:105AC00002F066FD25490D88E91705EB5171C0EB21
:105AD000E100460820233246AFF2384102A8009484
